:100000000C9498030C945A1C0C94331C0C94C0034D
:100010000C94C0030C94C0030C94160E0C94C003F3
:100020000C94C0030C94C0030C94C0030C94C00344
:100030000C94C0030C94C0030C94C0030C94C00334
:100040000C94DD1B0C94C0030C94501D0C942A1DC1
:100050000C94C0030C94C0030C94C0030C94C00314
:100060000C94C0030C94C003200054534D3A494EE5
:1000700049540A002154534D3A494E49543A545375
:1000800050204641494C0A0054534D3A494E495478
:100090003A545350204F4B0A0054534D3A46504166
:1000A000520A002154534D3A465041523A4E4F2085
:1000B0005245504C590A002154534D3A4650415232
:1000C0003A4641494C0A0054534D3A465041523A3F
:1000D0004F4B0A0054534D3A49443A5245510A0095
:1000E00054534D3A49440A002154534D3A49443A35
:1000F0004641494C0A0054534D3A49443A4F4B0A41
:100100000054534D3A55504C0A002154534D3A5522
:10011000504C3A4641494C0A0054534D3A55504CC4
:100120003A444757432C4F3D25752C4E3D25750AC3
:100130000054534D3A55504C3A4F4B0A0054534DCE
:100140003A52454144593A49443D25752C50415253
:100150003D25752C4449533D25750A002154534DC6
:100160003A52454144593A55504C204641494C2C4D
:10017000534E500A0054534D3A4641494C3A444973
:10018000530A0054534D3A4641494C3A434E543D6C
:1001900025750A0054534D3A4641494C3A52452D73
:1001A000494E49540A004D434F3A50494D3A4E4F3B
:1001B0004445205245473D25750A00215453463A8F
:1001C0004D53473A52454C204D53472C4E524550C3
:1001D0000A005453463A4D53473A42430A00545397
:1001E000463A4D53473A41434B0A00215453463A4D
:1001F0004D53473A504F4E4720524543562C494E97
:100200004143544956450A005453463A4D53473AE0
:10021000504F4E4720524543562C48503D25750AB5
:10022000005453463A4D53473A50494E4745442CA3
:1002300049443D25752C48503D25750A00215453ED
:10024000463A4D53473A4650415220494E41435455
:100250004956450A005453463A4D53473A46504191
:1002600052204F4B2C49443D25752C443D25750AA1
:1002700000215453463A4D53473A494420544B20A9
:10028000494E56414C49440A005453463A4D53474F
:100290003A41434B205245510A00215453463A4DAE
:1002A00053473A505645522C2575213D25750A0075
:1002B000215453463A4D53473A4C454E2C2575210F
:1002C0003D25750A005453463A4D53473A5245412D
:1002D000442C25752D25752D25752C733D25752CE4
:1002E000633D25752C743D25752C70743D25752C4A
:1002F0006C3D25752C73673D25753A25730A0020E2
:100300004D3D00494E5420503D00204D3D00494E8A
:100310005420503D00204D3D004D5920493D0041A5
:1003200057414B45002C20563D002C204D3D0049A7
:100330004E5420503D007300534C45455020002042
:10034000503D0020543D0020433D0020493D0052D7
:1003500045435620533D00214D434F3A534E443AB6
:100360004E4F4445204E4F54205245470A002046E8
:100370003D0020493D0020533D0020543D002043D6
:100380003D0020493D0053454E4420443D00205649
:100390003D0020503D0020493D005453463A53490A
:1003A000443A4F4B2C49443D25750A00215453468D
:1003B0003A5349443A4641494C2C49443D25750A33
:1003C0000025735453463A4D53473A53454E442CF7
:1003D00025752D25752D25752D25752C733D2575B8
:1003E0002C633D25752C743D25752C70743D257549
:1003F0002C6C3D25752C73673D25752C66743D2549
:10040000752C73743D25733A25730A0021545346A5
:100410003A5254453A465041522041435449564578
:100420000A00215453463A534E443A544E520A005D
:100430004D434F3A5245473A5245510A00545346AC
:100440003A5444493A54534C0A005453463A54528D
:10045000493A5453420A004D434F3A534C503A578D
:1004600055503D25690A00214D434F3A534C503AAF
:100470004E544C0A004D434F3A534C503A4D533D65
:10048000256C750A00214D434F3A534C503A544E57
:10049000520A004D434F3A534C503A4D533D256C50
:1004A000752C534D533D25752C49313D25752C4DEB
:1004B000313D25752C49323D25752C4D323D257534
:1004C0000A005453463A5755523A4D533D256C75E0
:1004D0000A004D434F3A42474E3A494E4954204F45
:1004E0004B2C5453503D25750A004D434F3A42471B
:1004F0004E3A5354500A004D434F3A42474E3A4207
:1005000046520A004D434F3A42474E3A494E4954EB
:10051000204E4F44452C43503D52504E4E412D2DC0
:100520002D2C5645523D322E322E312D616C706885
:10053000610A0020543D0020503D0020493D0052FA
:100540004144494F2E2E2E0020423D0020533D00B5
:1005500020413D0020543D0020453D0020523D00FB
:100560004C494220563D004E6F64654D616E616797
:10057000657220760020443D0020543D00505245D5
:100580005320493D005245414459004F4B00494ECC
:100590005420503D00494E5420503D0000000000C2
:1005A000240027002A0000000000250028002B005E
:1005B00000000000230026002900040404040404B1
:1005C0000404020202020202030303030303010202
:1005D00004081020408001020408102001020408D1
:1005E00010200000000800020100000304070000C2
:1005F0000000000000004E414E494E495459494EFA
:1006000046CDCCCC3D0AD7233C17B7D13877CC2B7D
:10061000329595E6241FB14F0A000020410000C822
:100620004200401C4620BCBE4CCA1B0E5AAEC59DA3
:100630007400407A10F35A00A0724E18090010A5F9
:10064000D4E80000E87648170000E40B54020000EC
:10065000CA9A3B000000E1F5050000809698000072
:100660000040420F000000A086010000001027009B
:10067000000000E803000000006400000000000A21
:1006800000000000000100000000002C76D888DC8B
:10069000674F0823DFC1DFAE59E1B1B796E5E3E468
:1006A00053C63AE651997696E8E6C28426EB898CE1
:1006B0009B62ED407C6FFCEFBC9C9F40F2BAA56F43
:1006C000A5F490055A2AF75C936B6CF9676DC11B12
:1006D000FCE0E40D47FEF520E6B500D0ED902E03DA
:1006E00000943577050080841E080000204E0A0023
:1006F0000000C80C333333330F986E12831141EF6F
:100700008D2114893BE65516CFFEE6DB18D1844BCC
:10071000381BF77C1D901DA4BBE424203284725E3C
:10072000228100C9F124ECA1E53D270041202A20C7
:1007300011241FBECFEFD8E0DEBFCDBF11E0A0E097
:10074000B1E0E4E8FCE502C005900D92AE3DB107D2
:10075000D9F723E0AEEDB1E001C01D92AF3CB20786
:10076000E1F713E0C7E9D3E004C02197FE010E943E
:100770001B23C639D107C9F70E94681F0C94352E78
:100780000C94000081E08093DF01089508958EBDF0
:1007900000000DB407FEFDCF8EB508950F931F9393
:1007A0000E94011B00912B0210912C0220912D021E
:1007B00030912E02601B710B820B930B1F910F91D6
:1007C000089580E58CBD81E08DBD0895AF92BF9204
:1007D000CF92DF92EF92FF920F931F93CF93DF930D
:1007E0001F92CDB7DEB77B01142F022F89830E94A1
:1007F000E1032A9889810E94C70357011123D1F090
:10080000002369F080E00E94C703E114F10481F045
:10081000F501808395012F5F3F4F590109C06501A4
:100820003FEFC31AD30AF50180810E94C703560126
:100830001150E4CF2A9A0F90DF91CF911F910F9121
:10084000FF90EF90DF90CF90BF90AF90089521E0A0
:1008500041E060E070E00C94E603CF93C82F8CE792
:1008600092E00E94041A80917A008F7780937A0038
:1008700090916000CF3FB1F0C3FD02C088E001C09D
:1008800088E2C770C82B88E10FB6F894A8958093CA
:1008900060000FBEC093600080916000806580930F
:1008A00060000BC00FB6F894A89580916000886135
:1008B00080936000109260000FBE83B7817F8460D8
:1008C00083BFF89483B7816083BF85B7806685BF97
:1008D0008F7D85BF7894889583B78E7F83BFF8948A
:1008E000A89580916000886180936000909360007B
:1008F000789480917A00806880937A00CF910895EF
:1009000083B78E7F83BF809102010E94811C8091FA
:1009100000018F3F21F4809102018093000108952E
:1009200083B78E7F83BF809101010E94811C8091DB
:1009300000018F3F21F4809101018093000108950F
:100940009C018091290290912A028217930751F00D
:10095000909133029F719093330230932A02209337
:10096000290205C080913302805E80933302E091BA
:100970002902F0912A02309721F00190F081E02DB8
:1009800009950E94011B60932B0270932C028093A7
:100990002D0290932E020895CF93DF931F92CDB72F
:1009A000DEB7698320E041E0BE016F5F7F4F806862
:1009B0000E94E6030F90DF91CF910895CF93C82F47
:1009C000811102C06AE101C06FE083E10E94CC04A2
:1009D000C11102C065E501C06DE58AE50E94CC0445
:1009E000C11102C060E701C06CE78CE5CF910C94A7
:1009F000CC040F931F93CF93DF93EC0180912802D7
:100A0000282F277030E02C173D0711F480E058C0E4
:100A1000C430D10571F1C330D10569F12097A9F433
:100A2000877F8F7E8093280260E485E20E94CC0459
:100A300080E00E94DE048DE30E942704682F64603A
:100A40008DE30E94CC0460E119C0C130D10571F47E
:100A500060E085E20E94CC0481E090912602923110
:100A60000CF480E00E94DE046CE008C0C530D105C3
:100A700021F064E003C060E801C068E081E00E940A
:100A8000CC04809128028770833049F0C770809130
:100A90002802887FC82BC093280281E011C00FEF85
:100AA0001FEF87E20E94270487FD06C0C801019757
:100AB000012B61F38C01F5CF012B09F4A7CFE6CF11
:100AC000DF91CF911F910F910895CF92DF92EF9216
:100AD000FF920F93CF93DF93CDB7DEB7C254D10906
:100AE0000FB6F894DEBF0FBECDBF91E09B8390910F
:100AF000E2019C838A834A3308F04AE322964FAF8F
:100B000022972D8350E0CE0107960E94CC23229697
:100B10008FAD22978B5F898380912802887F8460C4
:100B20008093280280E090E00E94F90461E070E088
:100B300080E090E00E94C71A0E94011B6B017C01BB
:100B400084E20E9427048F3B78F40E94011BDC01A1
:100B5000CB018C199D09AE09BF09843F9140A105C5
:100B6000B10510F4A895ECCF84E090E00E94F90460
:100B7000002329F0809125028F5F8093250260E198
:100B800088E20E94CC04809125028E8322964FAD8C
:100B900022974A5F20E0BE016F5F7F4F80E80E948E
:100BA000E60381E090E00E94F9040E94011B6B01C2
:100BB0007C018091DF0181110FC00E94011BDC01CB
:100BC000CB018C199D09AE09BF09803D9740A10555
:100BD000B10510F4A895EDCF9091DF0181E091115E
:100BE00001C080E0CE5BDF4F0FB6F894DEBF0FBED2
:100BF000CDBFDF91CF910F91FF90EF90DF90CF901D
:100C00000895FF920F931F93CF93DF9388E20E9482
:100C10002704C82F90912802977009F050C082FFD6
:100C20004EC084E090E00E94F904C5FF3DC00E94E0
:100C3000E1032A9880E00E94C70303EE11E086E0FA
:100C4000D0E0FF24F394CFEFC80F882361F180E058
:100C50000E94C703F80181938F01C11122C0D111F5
:100C600020C08091E5018823D9F0C091E3018C2F49
:100C700090E005978034910510F4C55001C0C0E4A0
:100C8000C09323028091E70186FB882780F9909129
:100C9000280280FB94F98F2580FB93F9909328021A
:100CA000D1E08C2FD0CF2A9A84E20E94270480932F
:100CB0002402DF91CF911F910F91FF90089580E062
:100CC00090E0DF91CF911F910F91FF900C94F90468
:100CD0002F923F924F925F926F927F928F929F924C
:100CE000AF92BF92CF92DF92EF92FF920F931F933A
:100CF000CF93DF9300D000D0CDB7DEB7D82E5B0105
:100D0000942EC22EE982FA820B831C832FEF821766
:100D100011F080E801C080E0182F10628F7D382E1E
:100D2000212C8091280285FF02C0212F01C0232D94
:100D300001E0211000E0492DB5018D2D0E946505CF
:100D40003FEFD31202C011E074C00E94011B2B01BF
:100D50003C010E94011BDC01CB0184199509A60905
:100D6000B70929813A814B815C8182179307A407D7
:100D7000B50708F059C08091DF01882321F0109257
:100D8000DF010E9401069091280294FFE2CF80903B
:100D9000E601E090E901F090E7010091EA019F7E11
:100DA0009093280280E090E00E94F9048D10D1CF4A
:100DB00080912502E812CDCF8091280285FB112772
:100DC00010F985FFC0CFF5FEBECF2091270290918C
:100DD000260284E0820F2450201720F4943114F46A
:100DE00061E007C0081708F0AECF9F3F0CF4ABCF0F
:100DF0006FEF690F6E3F0CF46EEF65310CF064E13C
:100E0000961709F4A0CF609326026E301CF46E5E34
:100E1000606406C0623114F0655F01C0625F6066A5
:100E200081E10E94CC0405C02394C21408F079CF5C
:100E300010E0812F0F900F900F900F90DF91CF91C6
:100E40001F910F91FF90EF90DF90CF90BF90AF90E8
:100E50009F908F907F906F905F904F903F902F90DA
:100E60000895EF92FF920F931F93CF93DF93CDB727
:100E7000DEB7C857D1090FB6F894DEBF0FBECDBF9D
:100E80008E010F571F4FF801E190F1908F010E94E2
:100E9000011BAB01BC012AE08CE792E00E94D81C48
:100EA00088E690E00E945C1E9801A70168E770E068
:100EB000CE0101960E94ED25CE0101960E94571E9B
:100EC0008CE792E00E94041AC858DF4F0FB6F894DE
:100ED000DEBF0FBECDBFDF91CF911F910F91FF906D
:100EE000EF9008952F923F924F925F926F927F9270
:100EF0008F929F92AF92BF92CF92DF92EF92FF922A
:100F00000F931F93CF93DF9300D000D000D0CDB7C5
:100F1000DEB7E0912902F0912A02309721F0028099
:100F2000F381E02D09958091330284FF8AC236E077
:100F30003C8396EAE92E91E0F92E2BEEC22E21E0B9
:100F4000D22E38E0A32E32E0B32E41E2842E42E0CE
:100F5000942E8091DF01882321F01092DF010E94FE
:100F600001068091280283FB662460F883FD09C096
:100F70008770823008F465C280E090E00E94F90436
:100F800060C23C8131503C83332309F45AC27090D3
:100F900023028FE1871508F451C24090E60130909A
:100FA000E8011091E70100912402472D50E069EE1D
:100FB00071E088EA93E00E94CC2380912802877F29
:100FC0008093280217FF0DC016FD0BC039820A83DB
:100FD00001E020E642E0BE016F5F7F4F842D0E945A
:100FE00065058091AB03382F3695369536953A31A5
:100FF00008F039E182FD04C067E0562E530E02C0AE
:1010000050E2552E0091AC0307700B830091AD03A5
:101010001091A9034090A8034091AA032B8123308B
:1010200011F4013149F088EA93E03D834E830E9438
:10103000A51E3D814E8102C084E791E0232E312C14
:101040009F938F938091AB0382FB882780F91F9237
:101050008F931F923F938091AC0382958695877002
:101060001F928F931F920F931F923B813F9380910A
:10107000AE031F928F931F924F931F924F921F9216
:101080001F93A5ECB2E0BF93AF934E830E9431074C
:101090000FB6F894DEBF0FBECDBF4E81751439F088
:1010A0001F925F921F927F9280EB92E00DC0309171
:1010B000AB03832F8370823091F01F9292E09F9355
:1010C0001F928F938AE992E09F938F930E9431073A
:1010D0000F900F900F900F900F900F903ACF80913C
:1010E000340280688093340280917802481354C09F
:1010F000832F8695869586958A3108F089E1A8E048
:101100008A9FC00111243770832B8093AB03F101B8
:10111000E855FC4F17828091AC0383FF21C089E81A
:1011200092E09F938F930E94310781E2E8EAF3E017
:10113000A7E8B3E001900D928A95E1F780918B03C7
:10114000877F806180938B038091780280938803EE
:101150001093890387E893E00E943E160F900F904A
:101160009091AC0394FD0BC02B81233081F48091CE
:10117000AD0331EF380F333008F050C0EACEAEED9A
:10118000B1E0BF93AF930E9431070F900F9088EAB0
:1011900093E00E94AA11DDCE4F3FB9F5A2EDB1E078
:1011A000BF93AF930E9431070F900F903B81333074
:1011B00039F58091330282FF03C0073009F4C9CEAC
:1011C000083009F4C6CE043109F0C3CE809179020B
:1011D0004812BFCE0E94011B7370882799270E9476
:1011E000C71A7090790200E025E143E06FEF812F8C
:1011F0000E94F01D672D0E9415150E946B15A9CE47
:10120000809179024812A5CEC2CFABEBB1E0BF937B
:10121000AF930E9431070F900F909BCE043081F462
:101220008091AE0390911701891711F08F3F29F437
:101230000E94421F0E94A0188CCE81E792E023C03A
:10124000083021F50091330200FF1BC00E94421FAD
:101250008F3F09F47ECE8F5F8F3F09F47ACE909155
:101260007A02891708F075CE01FD73CE80937A0259
:10127000109379021F928F931F921F9385E592E03E
:1012800023CF8DE392E09F938F93C3CF0831B9F4BE
:101290000E94421F1F928F931F921F939F928F92C3
:1012A0000E94310700E029E143E06FEF812F0E94A7
:1012B000F01D61E00E9415150E946B1509CF0931E0
:1012C00099F48091330283FF0CC0877F80933302AF
:1012D0000E94421F809335021F928F93BF92AF925C
:1012E00026C0DF92CF9295CF3091A903311187C0EC
:1012F0008D3059F498E088E10FB6F894A895809362
:1013000060000FBE90936000FFCF8B31B9F40E9454
:10131000421F91E0811101C090E08091E10190FBBA
:1013200080F98093E1011F929F93FF92EF920E94B8
:1013300031070F900F900F900F900BCE8630A1F4D5
:101340008091AF03882329F0662463948D3409F0DB
:10135000612C6092E00141E050E063E071E080EEDA
:1013600091E00E94C22DF5CD833119F40E9434180A
:10137000F0CD8231E1F40E94CE032B013C0100E06C
:1013800026E143E06FEF80E00E94F01DFC018481C4
:101390008F71806A848383818770806283834782B0
:1013A000508661867286CF010E943E16D2CD813072
:1013B00001F5A0E0B0E0AB2B09F4CBCD929596956A
:1013C0009770953049F46091AF037091B0038091AC
:1013D000B1039091B2030AC0911105C08FEA93E066
:1013E0000E94532503C060E070E0CB010E94000022
:1013F000B0CD8A3009F4ADCD8C3121F4AACD8A313B
:1014000009F4A7CD0E3109F4A4CD0D3109F0BFCEFA
:1014100000E02FE143E06FEF80E00E94F01DFC014F
:1014200084818F71806484838381877080618383EA
:1014300020E03FEF30872783CF01DFCE80E2782E98
:10144000ACCD26960FB6F894DEBF0FBECDBFDF91B0
:10145000CF911F910F91FF90EF90DF90CF90BF90B1
:10146000AF909F908F907F906F905F904F903F9044
:101470002F9008950F931F930E94CE032091340262
:101480002077203729F000E117E220E030E004C0A7
:1014900000E61AEE20E030E00617170728073907A4
:1014A00070F484E991E09F938F930E9431070F902D
:1014B0000F9088E191E01F910F910C94A0041F916F
:1014C0000F91089580913402982F9077903759F0BA
:1014D000982F92959F709F5F97709295907F8F78CD
:1014E000892B8093340280913402829587701F92F9
:1014F0008F9383E891E09F938F930E9431078091AF
:1015000033028B7F8F7E8093330285E791E09F9338
:101510008F930E9431078DE394E09F938F930E94F5
:1015200031078DB79EB708960FB6F8949EBF0FBED1
:101530008DBF83E090E00C94F904809134028F70A9
:10154000863060F08CE591E09F938F930E94310785
:101550000F900F9083E191E00C94A0040895809186
:101560007A021F928F93809179021F928F938091BC
:1015700078021F928F938DE391E09F938F930E9447
:10158000310780913302846080933302809134026A
:10159000807880933402E0913802F09139028DB75F
:1015A0009EB708960FB6F8949EBF0FBE8DBF3097BA
:1015B00009F009940895809135028F3F79F10E94D6
:1015C000011B60932F02709330028093310290933D
:1015D000320281E391E09F938F930E9431079091B3
:1015E000350280917A020F900F909817A1F01F9208
:1015F0009F931F928F9389E191E09F938F930E9415
:1016000031078091350280937A020F900F900F90EE
:101610000F900F900F908FE091E01DC00E94CE03BD
:10162000613D774081059105C0F08091330280369D
:1016300018F48BE091E00FC08AE091E09F938F93C4
:101640000E94310780913302877F809333020F908D
:101650000F9083E191E00C94A00408950F9381E032
:1016600091E09F938F930E9431078FEF8093350213
:10167000E3E3F2E080818860808300E028E143E0DA
:101680006FEF80E00E94F01D61E00E9415150F9041
:101690000F900F910C946B15809178028F3F59F049
:1016A00086EF90E09F938F930E9431070F900F90E9
:1016B0008BE091E018C00E94CE03613D7740810528
:1016C000910598F080913302803618F487E091E01C
:1016D0000AC088EE90E09F938F930E9431070F908D
:1016E0000F9083E091E00C94A00408950F93CF93A2
:1016F000DF931F92CDB7DEB780EE90E09F938F937C
:101700000E9431070F900F90809178028F3F29F54A
:101710000E94011B6F3F19F06093170102C01092E5
:1017200017016091170184ED90E09F938F93698377
:101730000E94310700E023E043E0698180E00E94DD
:10174000F01D6AE871E00E9421150F900F900F9034
:10175000DF91CF910F910C946B150F90DF91CF918A
:101760000F9108950E94CE03613D77408105910558
:1017700020F48091330281FF0895809179028F3F98
:1017800081F087EC90E09F938F930E9431078091C6
:1017900033028E7F809333020F900F9087E091E0A9
:1017A00019C080913302803658F483EA90E09F9309
:1017B0008F930E9431070F900F9083E191E00AC050
:1017C00087EB90E09F938F930E9431070F900F90CB
:1017D00083E091E00C94A0040F9389E990E09F933B
:1017E0008F930E943107E3E3F2E08081897F81607B
:1017F0008083E8E7F2E08FEF8283818300E027E0D7
:1018000043E06FEF0E94F01D6AE871E00E9421152D
:101810000F900F900F910C946B15EF92FF920F9316
:101820001F93CF93DF93CDB7DEB7E2970FB6F8944F
:10183000DEBF0FBECDBF8FEF8093E2018091280203
:101840001092250296E090932602807E83608F7D21
:101850008093280280EA809327022A9A229A1FB74F
:10186000F8948091DE01811127C0E4ECF5E08491C9
:10187000E8EDF5E09491E82FF0E0EE0FFF1FE4565D
:10188000FA4FA591B491EC91E92321F461E08AE04B
:101890000E945B1A61E08AE00E948B1A8CB580611D
:1018A0008CBD8CB580648CBD61E08DE00E948B1A8C
:1018B00061E08BE00E948B1A8091DE018F5F809344
:1018C000DE011FBF84E090E00E94F904CE01019682
:1018D0007C0182E3F70111928A95E9F781E089831F
:1018E00094E09A8332E03B8383E08D839F8365E0BD
:1018F000698796E09B8798E19D8728E82E8799E184
:101900009F879AE1998B96E29B8B97E09C8B98E25C
:101910009D8B50E15E8B99E29F8B94EE988F9CE2B9
:10192000998F9DE29B8F8C8F4EE24D8F2E8F2FE2F1
:101930002F8F98A340E349A394E69AA397E39BA330
:1019400098E39DA320E42EA399E39FA39FEF98A77C
:101950007AE379A79AA77CE37BA76CA76DE36DA7D1
:101960005EA75FE65FA748AB99AB3E8328878A876F
:1019700083E38C8782EE888B8A8B84ED8CA310E0C6
:10198000F701E10FF11DE10FF11D80818F3F29F07B
:1019900061810E94CC041F5FF3CF69ED87E00E9454
:1019A000CC0460E088E00E94CC0460E089E00E9402
:1019B000CC0480912602853039F085E080932602A0
:1019C00067E581E10E94CC0489E20E942704082F88
:1019D0008FE20E94270411E08D3209F010E091E0BF
:1019E000043E09F090E0192380E30E94270491E06F
:1019F000843609F090E0192371F060E188E20E94DA
:101A0000CC041092DF01529843E050E062EC73E0A6
:101A100080E00E94931C80912802806280932802BB
:101A200080EA80932702111109C084E790E09F9318
:101A30008F930E9431070F900F901DC088E890E0AF
:101A40009F938F930E94310780913302806180932E
:101A5000330280917B028E7F80937B02809178029B
:101A60000F900F908F3F21F00E94A018882319F04B
:101A700083E191E002C083E091E0E2960FB6F89432
:101A8000DEBF0FBECDBFDF91CF911F910F91FF90B1
:101A9000EF900C94A0048AE690E09F938F930E94AD
:101AA0003107E3E3F2E08081877F8F7E80831092AD
:101AB0002F021092300210923102109232020F90D7
:101AC0000F9044E050E060E070E088E792E00C9412
:101AD000B22D8F929F92AF92BF92CF92DF92EF92F0
:101AE000FF92CF93DF936B017C012FE0C20ED11CDC
:101AF000E11CF11CC1E0D0E0809100018F3FF9F4BE
:101B000080E1C816D104E104F104C8F089E094E052
:101B1000980F4E0102C0880C991C9A95E2F7A12CEF
:101B2000B12CC814D904EA04FB0438F00E942D0437
:101B3000C818D908EA08FB08DFCF8150E8CFDF9149
:101B4000CF91FF90EF90DF90CF90BF90AF909F909C
:101B50008F900895AF92BF92CF92DF92EF92FF9253
:101B60000F931F93CF93DF931F92CDB7DEB7B82E9D
:101B7000A42E67017801F89480930201409301013B
:101B80008FEFB81689F041E050E00B2C01C0440FF4
:101B90000A94EAF74CBB462F50E060E874E08B2DC6
:101BA00029830E94931C29818FEFA81679F081E088
:101BB00090E00A2C01C0880F0A94EAF78CBB422FF0
:101BC00050E060E974E08A2D0E94931CC114D10496
:101BD000E104F10429F0C701B6010E94690D03C0B8
:101BE0008FEF0E942D048FEFB81619F08B2D0E94F5
:101BF000811C8FEFA81619F08A2D0E94811C8091FC
:101C000000018F3F19F08091000101C08FEF9FEF1D
:101C1000909300010F90DF91CF911F910F91FF9052
:101C2000EF90DF90CF90BF90AF9008951F920F92EA
:101C30000FB60F9211240F900FBE0F901F901895A2
:101C40000895FC01248D358D428D538D84859585B5
:101C5000938B828BA085B1858330910549F4D4960E
:101C60005C934E93D397D8963C932E93D7970AC004
:101C7000029741F4D6965C934E93D597DA963C93AF
:101C80002E93D9970488F589E02D108681E081870D
:101C9000089508950895089508950895089508955C
:101CA0009B01FC0160897189C9010C943B1EEF9274
:101CB000FF920F931F93CF93DF938C01DC01149657
:101CC0008D919C9115971816190614F480E090E0F8
:101CD000880F991FD8011296ED91FC911397E80F88
:101CE000F91FC081D18156964D915C91579714167A
:101CF000150654F4052E000C660B770B18968D9183
:101D00009C9119970E94C61DE0903A02F0903B0208
:101D1000F801828D938D8330910531F4F1E0EF1657
:101D2000F10409F062C00AC08230910521F4E11487
:101D3000F10421F05AC0019709F057C0D8015E960E
:101D40008D919C915F97892B31F481E0EF2809F008
:101D500080E0E82EF12CF801828593850E94571EC1
:101D600086E993E00E945C1E6A817B818CE792E0A9
:101D70000E943B1E82E993E00E945C1ED8011C96E3
:101D80006D917C911D978CE792E00E943B1E8EE83E
:101D900093E00E945C1EC7010E94411EF80180A1D1
:101DA000882399F18A899B898E0D9F1D9B8B8A8B35
:101DB0006C857D856F5F7F4F7D876C870E94D12208
:101DC000798B688B408D518D14161506F4F4052E11
:101DD000000C660B770B80859185DF91CF911F9169
:101DE0000F91FF90EF900C94C61D8A899B898F5F9D
:101DF00091099B8B8A8B6C857D856F5F7F4F7D877B
:101E00006C870E94D122798B688BDF91CF911F91D3
:101E10000F91FF90EF9008958F929F92AF92BF9293
:101E2000CF92DF92EF92FF920F931F93CF93DF93A6
:101E3000EC017B01672B19F00A811B815CC00C89C6
:101E40001D89D80119968C9119978823A9F31896A2
:101E50008C911897882381F31A96DC901A97ED914C
:101E6000FC9187A190A5019709F0BDC0D8011496F7
:101E70004D915D916D917C91179781A592A5A3A538
:101E8000B4A5840F951FA61FB71FF80184839583FF
:101E9000A683B783F8011286EC89FD8981858823A2
:101EA000A9F08085882391F04481558166817781EE
:101EB00082819381092E000CAA0BBB0B481759078E
:101EC0006A077B070CF0B8CF77FDB6CFD110B4CF3F
:101ED000A3C0D801CD90DD908D01E114F104B9F0DB
:101EE000F701868190E0D60112962D913C911397CF
:101EF0008217930761F08C819D81880F991F2A8139
:101F00003B81820F931F0817190719F731C0A12CC5
:101F1000B12C8E859F85A816B9060CF5E881F9814C
:101F2000E114F10429F00680F781E02DB70104C027
:101F30000480F581E02DB601CE01099548895989C3
:101F40001416150644F4052E000C660B770B8885D5
:101F500099850E94C61DBFEFAB1ABB0ADACFD60126
:101F6000ED91FC910190F081E02DC6010995C3CF60
:101F7000EF2809F051C00C88DD89C02D89858823A0
:101F800009F44AC08885882309F446C04C815D81E4
:101F90006E817F818A819B81092E000CAA0BBB0B6D
:101FA000481759076A077B0714F477FF35C018866E
:101FB0001C821D821E821F821B861C861D861E8619
:101FC000E881F98187A190A5019731F4898588235B
:101FD00019F181E0888720C00E94011B6B877C87F4
:101FE0008D879E87F3CF0E94011BD8011B968D9091
:101FF0009D90AD90BC901E97681979098A099B093C
:1020000028EE33E040E050E00E94E522F80124830E
:102010003583468357833ECFDF91CF911F910F9138
:10202000FF90EF90DF90CF90BF90AF909F908F90F8
:1020300008952F923F924F925F926F927F928F926C
:102040009F92AF92BF92CF92DF92EF92FF920F9347
:102050001F93CF93DF93DC011C962D913C911D972C
:10206000232B09F464C18C01FC01E088F188D6803F
:10207000C2800684F785E02DC085D1851E01F6E07B
:102080002F0E311CC1010E9456158A858F71806404
:102090008A878985877080618987FE86ED86CC86F0
:1020A000DB86812C912C5E013DE0A30EB11C8FA537
:1020B00098A9881699060CF031C186E893E00E9431
:1020C0005C1E88850E94211D82E893E00E945C1EB0
:1020D0008C850E94211D8EE793E00E945C1E8A85FC
:1020E00087700E94211D8AE793E00E945C1E8B8509
:1020F0000E94211D86E793E00E945C1E8A858295DE
:102100008695877011F4C50102C080E090E00E94BE
:10211000571E82E793E00E945C1E8A858295869511
:102120008770823019F48D859E8508C0811104C0A6
:10213000C5010E94352502C080E090E0BC018CE71B
:1021400092E00E943B1E8EE693E00E945C1E8A8510
:10215000829586958770873029F4CD84DE84EF845C
:10216000F88807C0811110C0C5010E9431256B019C
:102170007C01A7019601C701B6010E94C2238823F2
:1021800031F06CE771E01DC0C12CD12C7601260125
:102190003701E89477F82FEF3FEF4FE75FE7C30190
:1021A000B2010E94C223811111C02FEF3FEF4FE710
:1021B0005FE7C301B2010E948B2C18163CF460E863
:1021C00071E08CE792E00E94B31C7DC02FEF3FEFDF
:1021D0004FE75FE4C701B6010E94BD2318161CF447
:1021E00064E871E0EECF2FEF3FEF4FE75FECC70100
:1021F000B6010E948B2C87FDF3CF20E030E0A901CF
:10220000C701B6010E948B2C87FF09C06DE28CE7E5
:1022100092E00E94AC1CF7FAF094F7F8F0942AE0F0
:1022200037ED43EA5BE3C701B6010E9422232B018D
:102230003C010E948E236B017C010E94902C9B012B
:10224000AC01C301B2010E9421232B013C012AE011
:10225000B701A6018CE792E00E94D81C6EE28CE7E1
:1022600092E00E94AC1C20E030E040E251E4C30167
:10227000B2010E94F12C6B017C010E948E232B0184
:10228000612C712C2AE0B301A2018CE792E00E943C
:10229000D81CC301B2010E94902C9B01AC01C70164
:1022A000B6010E94212320E030E040E251E40E9488
:1022B000F12C0E948E23AB0160E070E02AE08CE7F5
:1022C00092E00E94D81C68E871E08CE792E00E94DE
:1022D000B31C9BAD809178028F838A85807F282FE5
:1022E0002160A8E09A9FC0011124822B8A878091E7
:1022F000E10180FF04C0C1010E943E1608C0A7E5AD
:10230000B3E0BF93AF930E9431070F900F90CE01BF
:102310000E94821DFFEF8F1A9F0AC9CED8015396E3
:102320001C921E9252971D961C921E921C97DF9132
:10233000CF911F910F91FF90EF90DF90CF90BF90C2
:10234000AF909F908F907F906F905F904F903F9055
:102350002F900895CF93DF93EC018FE493E00E94D8
:102360005C1E89810E94211D8BE493E00E945C1E0B
:102370008E810E94211D87E493E00E945C1E8C8167
:1023800087700E94211D83E493E00E945C1E8D8172
:102390000E94211D8FE393E00E945C1E8C81829538
:1023A0008695877019F4CE01079602C080E090E010
:1023B0000E94551F6E8170E082E493E00E949C1D94
:1023C000009729F0BE01DF91CF910C940C0FDF91A3
:1023D000CF9108958F929F92AF92BF92CF92DF924A
:1023E000EF920F931F93CF93DF93009142031091CD
:1023F0004303CC24CA94DC2C809144039091450380
:10240000880F991F2091420330914303820F931F3D
:102410000817190781F1F801C191D1918F018091BD
:102420001C0190911D018F3FFFEF9F07D1F02A897A
:102430003B892817390701F788E493E00E94561575
:10244000E881F9810084F185E02DCE01099560E0F5
:1024500070E0CE010E940C0FD0921D01C0921C01B1
:10246000CBCF88E493E00E94561560E070E0CE0187
:102470000E940C0FC1CF8091690390916A0301976C
:1024800009F099C080906B0390906C03A0906D034D
:10249000B0906E0388E393E00E945C1EB501A40136
:1024A0008CE792E00E94091E86E393E00E94C81C1C
:1024B0008AE891E00E94551F009175031091760300
:1024C0000F3F110509F075C0EFEFC0907703D09072
:1024D00078032FEFC216D10411F0E12C02C0EE24D4
:1024E000EA94A8EEB3E0A50194010E94E42D2E2FFA
:1024F00040917E030E944D16082E000C990B97FD0B
:1025000049C08130910539F400917503109176032B
:10251000C3E0D0E00DC0892B39F40091770310910E
:102520007803C2E0D0E004C00FEF1FEFCFEFDFEF82
:10253000D0931D01C0931C018C2F0E94321A9093DE
:102540003B0280933A028FE293E00E945C1EBE0140
:102550008CE792E00E943B1E8AE293E00E945C1EA0
:10256000B8018CE792E00E943B1E85E293E00E9456
:102570005C1E80913A0290913B020E94411E809124
:102580006F03909170038C179D0721F410926A03DA
:10259000109269038FE193E0DF91CF911F910F912A
:1025A000EF90DF90CF90BF90AF909F908F900C9462
:1025B000C81CE1E08ACFDF91CF911F910F91EF907E
:1025C000DF90CF90BF90AF909F908F900895CF9362
:1025D000DF9380917F03882339F08091E00190E0C0
:1025E000909381038093800389E193E00E945C1EB5
:1025F000809178020E94211D85E193E00E945C1E7B
:1026000080918003909181030E94411EC0914203FA
:10261000D09143038091440390914503880F991F03
:102620002091420330914303820F931FC817D907AB
:1026300051F089919991DC01ED91FC910280F38137
:10264000E02D0995E7CF80916F039091700397FD7E
:102650001DC08330910569F482E090E09093760389
:102660008093750381E090E090937A0380937903DF
:102670000DC08230910551F49093780380937703D5
:1026800081E090E090937C0380937B0380917503BD
:10269000909176038F3F9105F9F060E083E00E940E
:1026A0008B1A6091790370917A0377FD03C083E000
:1026B0000E945B1A8091690390916A03019761F00F
:1026C000809175039091760320E93BE130932101DD
:1026D000209320010E94271C80917703909178031A
:1026E0008F3F9105E1F060E082E00E948B1A6091DB
:1026F0007B0370917C0377FD03C082E00E945B1A2C
:102700008091690390916A03019749F040917703A2
:102710005091780363E47BE180E00E94931C8EE09B
:1027200093E00E945C1E63E070E08CE792E00E9400
:102730003B1E8AE093E00E945C1E8091750390919D
:1027400076030E94411E83E093E00E945C1E62E0DB
:1027500070E08CE792E00E943B1E8FEF92E00E94B7
:102760005C1E8091770390917803DF91CF910C9458
:10277000411EDC011296ED91FC91139714968D91F8
:102780009C911597880F991F8E0F9F1FE817F907C7
:1027900059F0A191B19112962D913C911397261762
:1027A0003707A1F7CD01089580E090E00895EF92FA
:1027B000FF920F931F93CF93DF937C018B01FB015B
:1027C000668170E00E94B913EC01892BE1F0F801F9
:1027D000948197709230B9F485818230A1F4F70129
:1027E00084850E94321A2A893B89820F931F9B8B12
:1027F0008A8B6C857D856F5F7F4F7D876C870E949C
:10280000D122798B688BDF91CF911F910F91FF902F
:10281000EF900895AF92BF92CF92DF92FF920F9305
:102820001F93CF93DF930E947D1E8AE090E09093E8
:1028300083038093820387E695E00E945C1E8BE809
:1028400091E00E94551F809185039091860397FD2A
:1028500014C083E991E00E94571E809185039091F6
:1028600086030E94411E61E0809185030E948B1ABD
:1028700061E0809185030E945B1A80E695E00E94EA
:102880005C1E8AE991E00E94571E8CE595E00E944B
:102890005C1E86EA91E00E94571E88E595E00E9442
:1028A0005C1E88EA91E00E94571E84E595E00E9434
:1028B0005C1E8AEA91E00E94571E80E595E00E9426
:1028C0005C1E8CEA91E00E94571E8CE495E00E9409
:1028D0005C1E88EA91E00E94571E88E495E00E9401
:1028E0005C1E88EA91E00E94551F009142031091FE
:1028F0004303FF24F3948091440390914503880F90
:10290000991F2091420330914303820F931F0817B0
:10291000190709F455C0F801C191D1918F01EC89D3
:10292000FD898185811110C080918203909183037C
:1029300014821582168217821386148615861686CF
:1029400093838283F186F086E881F9810190F0819A
:10295000E02DCE010995CA80DB808C819D81880F96
:10296000991F2A813B81820F931FC816D90619F23D
:10297000F601A190B1906F018A859B850E94571E38
:102980008BE395E00E945C1EF501628173818CE708
:1029900092E00E943B1E87E395E00E945C1EF501D9
:1029A000648175818CE792E00E943B1E83E395E091
:1029B0000E945C1EF501868197810E94411ECDCF49
:1029C0008FE395E0DF91CF911F910F91FF90DF9002
:1029D000CF90BF90AF900C945C1E8F929F92AF925D
:1029E000BF92CF92DF92EF92FF926B017C010E9427
:1029F000011B4B015C010E94011BDC01CB0188190A
:102A00009909AA09BB098C159D05AE05BF0520F4DF
:102A1000A8950E947207EFCFFF90EF90DF90CF90C4
:102A2000BF90AF909F908F900895FC018381877035
:102A30008860838384818F71806284836783CF0100
:102A400008950F931F93CF93DF93EC0161157105E8
:102A500061F0FB0101900020E9F73197E61BF70BCD
:102A6000E931F10518F0E9E101C0E0E00E2F10E0D6
:102A7000C80123E0880F991F2A95E1F79B81977081
:102A8000892B8B838C818F718C83EE2329F0A80195
:102A9000CE0107960E94D523FE01E00FF11F178299
:102AA000CE01DF91CF911F910F910895CF93DF93C6
:102AB000FC01108211821282148215821682DC01BE
:102AC00017968AE1ED0119928A95E9F782E08383EE
:102AD000DF91CF910895AF92BF92CF92DF92EF92A4
:102AE000FF920F931F93CF93DF93EC018A81909114
:102AF000330290FF0CC08F3F79F08CE094E09F93FD
:102B00008F930E9431070F900F9010E0ABC08F3F62
:102B100019F0D090790202C0DD24DA948091780215
:102B200088834B8142FD05C0469546954695495F91
:102B300001C040E2413208F040E280917B0280FF18
:102B40000AC0E12CF12C870120E0BE018D2D0E94EE
:102B5000680681E00AC018ECE12EF12C00E010E0DC
:102B600025E0BE018D2D0E94680691E02FEFD21264
:102B700090E0182F192B8C818770833019F48D8188
:102B8000813129F0CE010E94A51EFC0102C0E4E7BC
:102B9000F1E0111103C061EB71E002C06EEA71E077
:102BA000509134025F709B8192FBAA24A0F8492FB8
:102BB0004695469546959C81B92EB294B69487E089
:102BC000B822CD809770EE80FA80AD2DB0E00881FC
:102BD000898120917B0220FD05C0111106C028EBE0
:102BE00031E005C026EB31E002C02AE831E0FF9376
:102BF000EF937F936F931F925F931F92AF921F92F9
:102C00004F931F92BF921F92CF921F929F931F923A
:102C1000EF921F92FF92BF93AF931F920F931F9259
:102C20008F933F932F9381EC93E09F938F930E9418
:102C300031078DB79EB74E960FB6F8949EBF0FBE64
:102C40008DBF80917902D8120DC08091340211118C
:102C500006C091E0980F9F70807F892B01C0807F14
:102C600080933402812FDF91CF911F910F91FF90BC
:102C7000EF90DF90CF90BF90AF90089520913302F6
:102C800022FD0C946B1582E294E09F938F930E9437
:102C900031070F900F9080E008953F924F925F921E
:102CA0006F927F928F929F92AF92BF92CF92DF925C
:102CB000EF92FF920F931F93CF93DF932B013C0171
:102CC000D42EC22F302EDE2D1F92CF921F92EF9264
:102CD0001F920F931F922F931F924F937F926F9289
:102CE0005F926F9383E994E09F938F930E943107E3
:102CF000809133022DB73EB7205F3F4F0FB6F89457
:102D00003EBF0FBE2DBF82FD37C085E894E09F9384
:102D10008F930E9431070E94011B4B015C010F90B1
:102D20000F9080E090E0DC012091330222FDC9C0C9
:102D300084159505A605B70508F0C9C0803137E2AE
:102D40009307A105B10508F4B0C053014201881AE8
:102D5000990AAA0ABB0ABF92AF929F928F9285E707
:102D600094E09F938F930E9431070F900F900F90E4
:102D70000F900F900F9002C053014201DD20C1F16E
:102D8000D501C4010197A109B109833F9140A10573
:102D9000B10568F4C301B2010E94ED1487E694E026
:102DA0009F938F930E9431070F900F9090C000E087
:102DB00020E243E06FEF80E00E94F01DFC0184817F
:102DC0008F71806A8483838187708062838384EFBC
:102DD00091E0A0E0B0E087839087A187B287CF0120
:102DE0000E943E1664EF71E080E090E00E94ED14D6
:102DF0008DE394E09F938F930E94310783E090E0EE
:102E00000E94F9040F900F90CF3F79F08501740173
:102E1000DF3F19F02C2D4D2F02C020E04FEF632D26
:102E20008C2F0E94AA0DC82F09C0DF3F31F4C501C5
:102E3000B4010E94690DCFEF01C0CEEF8C2F0C2E94
:102E4000000C990B9F93CF9387E594E09F938F930A
:102E50000E9431078AE494E09F938F930E94310788
:102E600084E090E00E94F9040F900F900F900F9073
:102E70000F900F90DD20B9F000E021E243E06FEF0A
:102E800080E00E94F01DFC0184818F71806A848340
:102E9000838187708062838387829086A186B286D1
:102EA000CF010E943E168C2F13C0A8950E94720776
:102EB0000E94011BDC01CB0188199909AA09BB09F1
:102EC00033CF84159505A605B70508F43ECF8EEFE0
:102ED000DF91CF911F910F91FF90EF90DF90CF90F6
:102EE000BF90AF909F908F907F906F905F904F902A
:102EF0003F9008950F93CF93DF938F3F11F0EA0136
:102F000002C0CAE9D1E0022F262F40E0682F80E0FE
:102F10000E94F01DBE010E942115DF91CF910F91FB
:102F20000C943E16CF92DF92EF92FF920F931F9375
:102F3000CF93DF938BE895E00E94C81C82E493E076
:102F40000E94821D00E02BE043E06FEF80E00E94D2
:102F5000F01D6AEB71E00E9421150E943E162CE0E4
:102F600043E06FEF80E00E94F01D66EC71E00E948C
:102F700021150E943E1682E493E00E94821D00917A
:102F80004203109143038091440390914503880FBD
:102F9000991F2091420330914303820F931F08171A
:102FA000190709F445C0D801ED90FD908D01F70196
:102FB000C280D380F70184819581880F991F228177
:102FC0003381820F931FC816D90669F1D601CD91BE
:102FD000DD916D018DE795E00E945C1E6A817B8129
:102FE0008CE792E00E943B1E89E795E00E945C1E00
:102FF0006C817D818CE792E00E943B1E85E795E025
:103000000E945C1E8A859B850E94551FD7011896D9
:10301000ED91FC91199723AD4A855B856C818A817E
:103020000E947A17C7CF82E493E00E94821DABCF43
:1030300085E895E00E94C81C8AE891E00E94551F2F
:1030400082E493E00E94821D82E493E00E94821D4C
:1030500082E493E0DF91CF911F910F91FF90EF9069
:10306000DF90CF900C94821D0F93CF9300E02FE060
:1030700043E06FEF80E00E94F01D6AE871E00E947B
:103080002115E7E8F3E08381877080618383848181
:103090008F71806C848381E087831086CF010E94CA
:1030A0003E168FE00E940D1B20E04AE851E061E1EE
:1030B0008FEF0E947A17C091790226E043E06FEF0C
:1030C00080E00E94F01D6C2F0E9415150E943E1694
:1030D00086E00E940D1BCF910F910C9492170F93D5
:1030E000CF938091E10181FD28C00E94341880E3D4
:1030F00094E09F938F930E9431078091E10181605A
:103100008093E1010F900F90C4E000E02AE143E0DA
:103110006FEF80E00E94F01D62E00E9415150E9492
:103120003E168BE10E940D1B811102C0C15069F750
:103130008091E10182608093E101CF910F91089528
:10314000CF93C82F8FEF8C0F8E3FF8F4C093780287
:1031500084E090E00E94F904C093E2016C2F89E3BF
:103160000E94CC046C2F80E090E00E94D22D1F9230
:10317000CF938AE993E09F938F930E9431070F903A
:103180000F900F900F9081E010C01F92CF938CEAA8
:1031900093E09F938F930E9431078FEF8093780283
:1031A0000F900F900F900F9080E0CF910895833093
:1031B00081F028F4813099F08230A1F008958730B1
:1031C000A9F08830B9F08430D1F4809180008F7DEF
:1031D00003C0809180008F7780938000089584B52C
:1031E0008F7702C084B58F7D84BD08958091B00033
:1031F0008F7703C08091B0008F7D8093B0000895D9
:103200003FB7F8948091410290914202A09143020D
:10321000B091440226B5A89B05C02F3F19F0019636
:10322000A11DB11D3FBFBA2FA92F982F8827820F4C
:10323000911DA11DB11DBC01CD0143E0660F771F9B
:10324000881F991F4A95D1F708950895CF92DF926C
:10325000EF92FF920F931F93CF93DF936C017A014C
:103260008B01C0E0D0E0CE15DF0589F0D8016D916B
:103270008D01D601ED91FC910190F081E02DC60108
:103280000995892B11F47E0102C02196ECCFC7016C
:10329000DF91CF911F910F91FF90EF90DF90CF9032
:1032A0000895089580E090E00895FC01538D448DC9
:1032B000252F30E0842F90E0821B930B541710F0E1
:1032C000CF96089501970895FC01918D828D9817EE
:1032D00061F0828DDF01A80FB11D5D968C91928DFA
:1032E0009F5F9F73928F90E008958FEF9FEF0895F7
:1032F000FC01918D828D981731F0828DE80FF11DC0
:10330000858D90E008958FEF9FEF0895FC01918DDA
:10331000228D892F90E0805C9F4F821B91098F73D3
:10332000992708958CE792E00E94861921E0892B65
:1033300009F420E0822F0895FC01848DDF01A80F9D
:10334000B11DA35ABF4F2C91848D90E001968F73CD
:103350009927848FA689B7892C93A089B1898C91EC
:1033600080648C93938D848D981306C00288F389B2
:10337000E02D80818F7D80830895EF92FF920F93DF
:103380001F93CF93DF93EC0181E0888F9B8D8C8D11
:10339000981305C0E889F989808185FD24C0F62E3F
:1033A0000B8D10E00F5F1F4F0F731127E02E8C8DD8
:1033B000E8120CC00FB607FCFACFE889F9898081C2
:1033C00085FFF5CFCE010E949C19F1CF8B8DFE01B8
:1033D000E80FF11DE35AFF4FF0820B8FEA89FB895A
:1033E0008081806207C0EE89FF896083E889F9895E
:1033F00080818064808381E090E0DF91CF911F9194
:103400000F91FF90EF900895CF93DF93EC01888D9B
:103410008823C9F0EA89FB89808185FD05C0A889D8
:10342000B9898C9186FD0FC00FB607FCF5CF80815E
:1034300085FFF2CFA889B9898C9185FFEDCFCE01A8
:103440000E949C19E7CFDF91CF91089580E090E032
:10345000892B29F00E94921981110C940000089583
:103460000E94C723CF93DF93282F30E0F901EE515C
:10347000FA4F8491F901E253FA4FD491F901E654DD
:10348000FA4FC491CC2391F081110E94D718EC2FF0
:10349000F0E0EE0FFF1FE055FA4FA591B491EC91CB
:1034A000ED2381E090E021F480E002C080E090E034
:1034B000DF91CF9108951F93CF93DF93282F30E0B2
:1034C000F901EE51FA4F8491F901E253FA4FD49188
:1034D000F901E654FA4FC491CC23C9F0162F81119B
:1034E0000E94D718EC2FF0E0EE0FFF1FEA55FA4FBD
:1034F000A591B4918FB7F894111105C09C91ED2F4F
:10350000E095E92302C0EC91ED2BEC938FBFDF91A6
:10351000CF911F910895CF93DF9390E0FC01E25388
:10352000FA4F2491FC01E654FA4F8491882361F10B
:1035300090E0880F991FFC01E456FA4FC591D49191
:10354000FC01EA55FA4FA591B491611109C09FB7EA
:10355000F8948881209582238883EC912E230BC0D8
:10356000623061F49FB7F8943881822F809583236D
:103570008883EC912E2B2C939FBF06C08FB7F894B5
:10358000E8812E2B28838FBFDF91CF9108958F92F2
:103590009F92AF92BF92CF92DF92EF92FF926B0118
:1035A0007C010E9400194B015C01C114D104E104AB
:1035B000F104F1F00E940019DC01CB01881999098E
:1035C000AA09BB09883E9340A105B10570F321E02B
:1035D000C21AD108E108F10888EE880E83E0981E2F
:1035E000A11CB11CC114D104E104F10419F7DDCF11
:1035F000FF90EF90DF90CF90BF90AF909F908F9013
:1036000008952FB7F89460913D0270913E02809129
:103610003F02909140022FBF0895CF92DF92EF9228
:10362000FF92CF93DF93D82F0E94011B6B017C0187
:1036300081E0D11180E08093AD03C0E00E94011BC6
:10364000AB01BC014C195D096E097F09403D574033
:103650006105710580F4C1110EC0A8950E94720722
:103660009091AC039770933049F7C1E08091AD031E
:103670008D13E3CFE3CF8C2FDF91CF91FF90EF90AD
:10368000DF90CF900895CF92DF92EF92FF920E9449
:10369000011B6B017C018091190390911A03A09189
:1036A0001B03B0911C03B701A601481B590B6A0B01
:1036B0007B0B45365105610571052CF4C816D906FA
:1036C000EA06FB0644F582E090E090931D018093AA
:1036D0001C010E94321A90933B0280933A0285E9C2
:1036E00095E00E945C1E62E070E08CE792E00E9430
:1036F0003B1E8AEC91E00E94571E80913A02909105
:103700003B020E94411EC0921903D0921A03E0921C
:103710001B03F0921C03FF90EF90DF90CF90089571
:10372000CF92DF92EF92FF920E94011B6B017C010E
:1037300080911D0390911E03A0911F03B09120035F
:10374000B701A601481B590B6A0B7B0B4536510587
:10375000610571052CF4C816D906EA06FB0644F586
:1037600083E090E090931D0180931C010E94321A27
:1037700090933B0280933A028EE895E00E945C1E93
:1037800063E070E08CE792E00E943B1E8AEC91E0DF
:103790000E94571E80913A0290913B020E94411E66
:1037A000C0921D03D0921E03E0921F03F0922003EB
:1037B000FF90EF90DF90CF9008951F920F920FB679
:1037C0000F9211242F933F938F939F93AF93BF93A7
:1037D00080913D0290913E02A0913F02B091400243
:1037E00030913C0226E0230F2D3720F40296A11DD4
:1037F000B11D05C029E8230F0396A11DB11D20931B
:103800003C0280933D0290933E02A0933F02B0930E
:1038100040028091410290914202A0914302B091F6
:1038200044020196A11DB11D809341029093420272
:10383000A0934302B0934402BF91AF919F918F91A7
:103840003F912F910F900FBE0F901F901895E9E6B2
:10385000F0E02081880F991F880F991F237F822B0A
:103860008083E99A08951F920F920FB60F92112448
:103870002F933F934F935F936F937F938F939F9378
:10388000AF93BF93EF93FF93E0912001F09121015B
:103890000995FF91EF91BF91AF919F918F917F918A
:1038A0006F915F914F913F912F910F900FBE0F90AD
:1038B0001F9018951F920F920FB60F9211242F93FD
:1038C0003F934F935F936F937F938F939F93AF93A8
:1038D000BF93EF93FF93E0911E01F0911F010995B3
:1038E000FF91EF91BF91AF919F918F917F916F91D8
:1038F0005F914F913F912F910F900FBE0F901F90AE
:103900001895823078F4813011F0E89801C0E99878
:10391000E82FF0E0EE0FFF1FE25EFE4F85E299E137
:10392000918380830895952F8230A8F4E82FF0E0EA
:10393000EE0FFF1FE25EFE4F71836083813041F026
:10394000809169008C7F482B40936900E89A089524
:10395000842F0C94271C0895DC01ED91FC910190BB
:10396000F081E02D09946115710579F0FB0101905A
:103970000020E9F73197AF01461B570BDC01ED91B1
:10398000FC910280F381E02D099480E090E008959D
:10399000CF93DF930E945C1EEC0168E871E08CE736
:1039A00092E00E94B31C8C0F9D1FDF91CF91089570
:1039B0004F925F926F927F92EF92FF920F931F93BD
:1039C000CF93DF93CDB7DEB7A1970FB6F894DEBFE4
:1039D0000FBECDBF7C01FA01CB0119A2223008F441
:1039E0002AE08E010F5D1F4F422E512C612C712C4D
:1039F000BF01A30192010E94E522F901CA01015011
:103A000011096A3014F4605D01C0695CD8016C93DF
:103A1000232B242B252B61F7B801C7010E94B31C6F
:103A2000A1960FB6F894DEBF0FBECDBFDF91CF9148
:103A30001F910F91FF90EF907F906F905F904F904C
:103A40000895482F50E060E070E02AE08CE792E0B3
:103A50000C94D81C1F920F920FB60F9211242F9323
:103A60003F934F935F936F937F938F939F93AF9306
:103A7000BF93EF93FF938CE792E00E949C19FF9114
:103A8000EF91BF91AF919F918F917F916F915F91D6
:103A90004F913F912F910F900FBE0F901F9018954F
:103AA0001F920F920FB60F9211242F938F939F9313
:103AB000EF93FF93E0918C02F0918D028081E09171
:103AC0009202F091930282FD12C090818091950242
:103AD0008F5F8F7320919602821751F0E0919502CB
:103AE000F0E0E458FD4F958F8093950201C08081EE
:103AF000FF91EF919F918F912F910F900FBE0F909B
:103B00001F901895CF92EF920F93FC0161A972A9B3
:103B1000161617066CF4072E000C880B990BCC2494
:103B2000CA94EE24EA940FEF2FEF40E00E944D1666
:103B30000F91EF90CF900895CF92DF92EF92FF9286
:103B40000F931F93CF93DF937B01FC01C081D18141
:103B500002811381000F111F0C0F1D1FC017D10709
:103B600051F0C990D990B701C6010E94B913892BB1
:103B7000A9F3C60102C080E090E0DF91CF911F91D0
:103B80000F91FF90EF90DF90CF900895CF92EF923A
:103B90000F93FC0127A130A52130310531F4FC0140
:103BA000EE5BFF4F2081211107C0CB01BA010F91BD
:103BB000EF90CF900C94ED14493C510561057105CF
:103BC000A4F3CB01BA01CC24CA94EE24EA940FEFFB
:103BD0002FEF40E00E944D160F91EF90CF90089587
:103BE0000F931F93E7E8F3E090917802918382832B
:103BF0006683258347708481807F482B88E0089FF7
:103C000080011124042B0F7E0483CF011F910F919B
:103C10000895CF92DF92EF92FF920F931F93CF936D
:103C2000DF9377FF1DC06A017B01EC016DE20E940A
:103C3000AC1C8C0144275527BA014C195D096E094B
:103C40007F092AE0CE010E94D81C800F911FDF91CE
:103C5000CF911F910F91FF90EF90DF90CF9008953B
:103C60002AE0DF91CF911F910F91FF90EF90DF90AD
:103C7000CF900C94D81CAB01770F660B770B0C948C
:103C8000091ECF93DF93AC01990F660B770B8CE77E
:103C900092E00E94091EEC0168E871E08CE792E076
:103CA0000E94B31C8C0F9D1FDF91CF910895BC0122
:103CB0008CE792E00C94B31C0F931F93CF93DF9388
:103CC0008C01C0E0D0E0F801EC0FFD1F6491662389
:103CD00071F0E0917C02F0917D020190F081E02D85
:103CE0008CE792E00995892B11F02196ECCFCE015B
:103CF000DF91CF911F910F910895ECE7F2E0A08939
:103D0000B18982E08C93A485B5851C92A685B78580
:103D100087E68C93108EA489B58986E08C93A2895E
:103D2000B3898C9180618C93A289B3898C918860CE
:103D30008C93A289B3898C9180688C930288F389D3
:103D4000E02D80818F7D808308950F931F93CF9303
:103D5000DF93EC018C8182958695877091F44B817D
:103D600046954695469550E0BE01695F7F4F85E4D4
:103D700092E00E94D523EB81E695E695E695F0E08A
:103D800077C0813031F48F814AE065E472E090E0E1
:103D900007C0823041F44AE065E472E08F81988583
:103DA0000E947A2568C0833041F44AE065E472E0FD
:103DB0008F8198850E94D3255EC0843051F46F8135
:103DC000788589859A852AE045E452E00E94852518
:103DD00052C0853051F46F81788589859A852AE0B3
:103DE00045E452E00E94B12546C0873071F42B852E
:103DF000293008F028E06F81788589859A8505E467
:103E000012E042E00E94E42336C08630A1F520E0B3
:103E1000EB81E695E695E6952E1738F5E22FF0E072
:103E2000AF01440F551FDA01AB5BBD4FEC0FFD1F17
:103E30008781082E000C990B34E0959587953A956B
:103E4000E1F78F708A3010F4805D01C0895C8C933B
:103E5000DA01AA5BBD4F87818F708A3010F4805DD4
:103E600001C0895C8C932F5FD3CFF0E0EE0FFF1F72
:103E7000EB5BFD4F108285E492E0DF91CF911F91C3
:103E80000F9108958091AC0382958695877081305B
:103E900019F48091AF030895811105C08FEA93E072
:103EA0000E943525089580E00895CF93DF93BC01EB
:103EB0008CE792E00E94B31CEC0168E871E08CE7AB
:103EC00092E00E94B31C8C0F9D1FDF91CF9108954B
:103ED000789484B5826084BD84B5816084BD85B5E5
:103EE000826085BD85B5816085BD80916E008160F1
:103EF00080936E0010928100809181008260809397
:103F00008100809181008160809381008091800098
:103F10008160809380008091B10084608093B100C3
:103F20008091B00081608093B00080917A008460BD
:103F300080937A0080917A00826080937A008091E9
:103F40007A008E7F80937A0080917A0080688093D7
:103F50007A001092C100A89580E090E0892B11F0C2
:103F60000E9400000E947D1E84E095E09F938F9345
:103F70000E9431078091E1018D7F8093E1010F90D4
:103F80000F9087EF94E09F938F930E9431070E94D8
:103F90000A140F900F9041E050E063E071E080EE72
:103FA00091E00E94B22D6FEF81E090E00E94D22D4F
:103FB000809134028F788093340210922A021092FA
:103FC000290288E191E00E94A0048FE698E1909395
:103FD0003902809338021F921F921F921F9282EC27
:103FE00094E09F938F930E9431070E94011B0F90D2
:103FF0000F900F900F900F900F900E94011B0E9446
:104000007207A8958091330282FFF7CF8AEE94E081
:104010009F938F930E9431070E94E7120F900F9099
:104020008091330282FB882780F91F928F9382ED63
:1040300094E09F938F930E943107A8950F900F9063
:104040000F900F90A8950E9472070E94EA110E949B
:10405000261AF8CF8EE391E09093220380932103F8
:104060008091230390912403009711F00E949924DA
:104070008091420390914303009711F00C9499248E
:1040800008956F927F928F929F92AF92BF92CF923C
:10409000DF92EF92FF920F931F93CF93DF93CDB7F1
:1040A000DEB7A1970FB6F894DEBF0FBECDBF10925A
:1040B0007F0210927E0288EE93E0A0E0B0E0809351
:1040C000800290938102A0938202B09383028CE2DB
:1040D00091E090937D0280937C0285EC90E0909338
:1040E00089028093880284EC90E090938B02809305
:1040F0008A0280EC90E090938D0280938C0281EC98
:1041000090E090938F0280938E0282EC90E09093E7
:1041100091028093900286EC90E0909393028093BA
:1041200092021092950210929602109297021092AB
:10413000980288EA93E00E94561587E893E00E946F
:10414000561562E4A62E63E0B62E10924303109239
:1041500042031092450310924403109247031092B9
:10416000460388E493E00E94561510926A03109269
:10417000690310926B0310926C0310926D031092FE
:104180006E030FEF1FEF1093700300936F03CC24A7
:10419000C394D12CD0927203C09271031092740315
:1041A000109273038FEF90E09093760380937503E2
:1041B000909378038093770310937A0300937903A5
:1041C00010937C0300937B0310927D03FF24F394F0
:1041D000F0927E03F0927F03D0928103C09280031D
:1041E00088E592E09093830380938203F0928403A6
:1041F0001093860300938503CE0101960E94561505
:1042000081E2FE013196A8E4B3E001900D928A9517
:10421000E1F78EE391E090932203809321031092C3
:104220002403109223031092260310922503109268
:104230002803109227038AE891E090932C0380933F
:104240002B03D0923003C0922F03109232031092AE
:1042500031031093340300933303B0922A03A092E6
:10426000290383E090E090932E0380932D038FE049
:1042700090E00E940424FC011382128214821582B1
:104280001682178210861186F2861386148615868A
:104290001686B182A08290933603809335030091F5
:1042A00044031091450380914603909147030817FA
:1042B000190761F5C801019690934703809346035F
:1042C00081382FE3920718F4880F991F02C08FEFEF
:1042D0009FEF0E9404247C01A0914203B09143030C
:1042E000FC0120E030E0CD01201731073CF44D9176
:1042F0005D91419351932F5F3F4FF6CF009711F09F
:104300000E949924E0924203F09243038091440377
:10431000909145039C01220F331FE0914203F091DD
:104320004303E20FF31F21E233E031832083019640
:1043300090934503809344038CE591E0909322038E
:1043400080932103109238031092370310923A039E
:104350001092390381E090E090933C0380933B03FB
:1043600090933E0380933D039093400380933F03DB
:1043700021E0209341032EEC31E030932C03209375
:104380002B03909328038093270382E090E00E9400
:1043900004246C014091250350912603E0912303EE
:1043A000F09124035C01DC0120E030E0CF01241710
:1043B00035073CF4619171916D937D932F5F3F4F71
:1043C000F6CF009711F00E949924D0922403C09256
:1043D0002303E0902903F0902A0301E010E0C801D4
:1043E000885C9109039758F0B801C7010E949C1D91
:1043F000009761F0B8010E94B913892B39F00F5F63
:104400001F4F0F3F110559F70EEF10E084E190E0C8
:104410000E9404247C0180912B0390912C032CE4B6
:1044200031E0D70111963C932E9327E130E01596A9
:104430003C932E93149720E330E017963C932E93F1
:1044400016971D961C921E921C9712960C9312970B
:1044500013961C9313971B969C938E931A9781E245
:1044600093E01F969C938E931E97809025039090C7
:104470002603809127039091280384010F5F1F4F2B
:104480008816990651F510932803009327030138E5
:10449000BFE31B0720F4C801880F991F02C08FEFEC
:1044A0009FEF0E9404243C01FC0120E030E028152D
:1044B00039054CF4D5018D919D915D0181939193C6
:1044C0002F5F3F4FF4CFC114D10419F0C6010E94F1
:1044D00099246092230370922403880C991CE09124
:1044E0002303F0912403E80DF91DF182E08210937B
:1044F00026030093250384E591E0F70191838083EF
:10450000138A128A8AE691E0909322038093210312
:1045100088ED91E090932C0380932B0310161106E5
:1045200014F400E010E0000F111FE0912303F0915C
:104530002403E00FF11F0190F081E02D1582148219
:1045400080E190E09783868388ED91E0938782876E
:104550000E94011B60931D0370931E0380931F0331
:10456000909320030E94011B6093190370931A0318
:1045700080931B0390931C03A1960FB6F894DEBFA3
:104580000FBECDBFDF91CF911F910F91FF90EF90A4
:10459000DF90CF90BF90AF909F908F907F906F9063
:1045A000089597FB072E16F4009407D077FD09D0E5
:1045B0000E94072307FC05D03EF4909581959F4FFC
:1045C0000895709561957F4F0895A1E21A2EAA1B58
:1045D000BB1BFD010DC0AA1FBB1FEE1FFF1FA217B3
:1045E000B307E407F50720F0A21BB30BE40BF50BB0
:1045F000661F771F881F991F1A9469F76095709539
:10460000809590959B01AC01BD01CF010895AA1B37
:10461000BB1B51E107C0AA1FBB1FA617B70710F0AD
:10462000A61BB70B881F991F5A95A9F780959095DF
:10463000BC01CD010895EE0FFF1F0590F491E02D10
:1046400009945058BB27AA270E9439230C94782D2F
:104650000E946A2D38F00E94712D20F039F49F3F9E
:1046600019F426F40C94672D0EF4E095E7FB0C94F6
:10467000612DE92F0E94892D58F3BA17620773073D
:104680008407950720F079F4A6F50C94AB2D0EF471
:10469000E0950B2EBA2FA02D0B01B90190010C0152
:1046A000CA01A0011124FF27591B99F0593F50F46A
:1046B000503E68F11A16F040A22F232F342F4427C2
:1046C000585FF3CF469537952795A795F0405395BA
:1046D000C9F77EF41F16BA0B620B730B840BBAF08A
:1046E0009150A1F0FF0FBB1F661F771F881FC2F7F5
:1046F0000EC0BA0F621F731F841F48F48795779509
:104700006795B795F7959E3F08F0B0CF9395880FC2
:1047100008F09927EE0F9795879508950E94912D9F
:1047200088F09F5798F0B92F9927B751B0F0E1F072
:10473000660F771F881F991F1AF0BA95C9F714C022
:10474000B13091F00E94AB2DB1E008950C94AB2DE7
:10475000672F782F8827B85F39F0B93FCCF386955B
:1047600077956795B395D9F73EF4909580957095B8
:1047700061957F4F8F4F9F4F08950E94CD2C08F475
:104780008FEF08950E94CD2C880B990B089581E03E
:1047900090E0F8940C94352EFB01DC0102C00190EE
:1047A0000D9241505040D8F70895FB01DC01415073
:1047B000504048F001900D920020C9F701C01D92B1
:1047C00041505040E0F70895EF920F931F93CF931D
:1047D000DF93E80147FD02C034E001C034E1E42F7B
:1047E000440FFF0BF7FF03C0F195E195F109E32EAC
:1047F000022F2E2FAE010E94EB27CE01DF91CF9129
:104800001F910F91EF900895CF93DF938230910520
:1048100010F482E090E0E091CB03F091CC0320E033
:1048200030E0C0E0D0E0309711F14081518148176D
:104830005907C0F04817590761F482819381209786
:1048400019F09B838A832BC09093CC038093CB0376
:1048500026C02115310519F04217530718F49A01A3
:10486000BE01DF01EF010280F381E02DDCCF2115D5
:10487000310509F1281B390B2430310590F41296CB
:104880008D919C9113976115710521F0FB01938324
:10489000828304C09093CC038093CB03FD013296B6
:1048A00044C0FD01E20FF31F81939193225031091F
:1048B0002D933C933AC02091C9033091CA03232B16
:1048C00041F420912401309125013093CA032093B3
:1048D000C90320912201309123012115310541F4B2
:1048E0002DB73EB74091260150912701241B350B6F
:1048F000E091C903F091CA03E217F307A0F42E1B5D
:104900003F0B2817390778F0AC014E5F5F4F241733
:10491000350748F04E0F5F1F5093CA034093C903F9
:104920008193919302C0E0E0F0E0CF01DF91CF915D
:1049300008950F931F93CF93DF93009709F48CC0D2
:10494000FC013297138212820091CB031091CC03A9
:104950000115110581F420813181820F931F20916F
:10496000C9033091CA032817390779F5F093CA03B0
:10497000E093C90371C0D80140E050E0AE17BF0713
:1049800050F412962D913C911397AD0121153105EC
:1049900009F1D901F3CF9D01DA01338322836081CC
:1049A0007181860F971F8217930769F4EC012881A4
:1049B0003981260F371F2E5F3F4F318320838A8135
:1049C0009B8193838283452B29F4F093CC03E0935E
:1049D000CB0342C01396FC93EE931297ED014991DD
:1049E00059919E01240F351FE217F30771F480815E
:1049F0009181840F951F029611969C938E938281CC
:104A0000938113969C938E931297E0E0F0E0D80187
:104A100012968D919C911397009719F0F8018C01D3
:104A2000F6CF8D919C9198012E5F3F4F820F931F7F
:104A30002091C9033091CA032817390769F43097C8
:104A400029F41092CC031092CB0302C0138212827D
:104A50001093CA030093C903DF91CF911F910F9167
:104A60000895662777270C947929FC0188279927D0
:104A7000E89421912032E9F3293010F02E30C8F368
:104A80002B3241F02D3239F4689404C00E94A925DC
:104A9000820F911D219120532A30C0F31EF490956E
:104AA00081959F4F08951F93FC0199278827BC018A
:104AB000E89411911032E9F3193010F01E30C8F368
:104AC0001B3251F01D3249F4689406C00E949425AF
:104AD000610F711D811D911D119110531A30B0F39A
:104AE0003EF490958095709561957F4F8F4F9F4FC5
:104AF0001F910895BB274A3031F4992322F4BDE277
:104B0000909581959F4F0C94D425BB272A3051F462
:104B1000992342F4BDE290958095709561957F4F01
:104B20008F4F9F4F0C94B225592F482F372F262F88
:104B3000660F771F881F991F660F771F881F991FA1
:104B4000620F731F841F951F660F771F881F991FA1
:104B500008957AE0979F902D879F802D910D1124C5
:104B60000895BB27FA01A62F6217710581059105EB
:104B7000330B30FB66F0AA27660F771F881F991F3B
:104B8000AA1FA21710F0A21B63953850A9F7A05DC9
:104B9000AA3308F0A95DA19336F7B111B193108241
:104BA000CA010C94E52BBB27FB015527AA27880FC8
:104BB000991FAA1FA41710F0A41B83955051B9F791
:104BC000A05DAA3308F0A95DA193009779F7B11110
:104BD000B1931192CB010C94E52BAEE0B0E0E3EF82
:104BE000F5E20C94FD2D8C01CA014EE04C831A8332
:104BF000098377FF02C060E070E8FB013197FE8314
:104C0000ED83A901BC01CE0101960E9419264D81B8
:104C10005E8157FD0AC02F813885421753070CF477
:104C20009A01F801E20FF31F10822E96E4E00C9433
:104C3000192EACE0B0E0EFE1F6E20C94EF2D7C0130
:104C40006B018A01FC0117821682838181FFBDC13D
:104C5000CE0101964C01F7019381F60193FD8591F8
:104C600093FF81916F01882309F4ABC1853239F438
:104C700093FD859193FF81916F01853229F4B701EE
:104C800090E00E94F52BE7CF512C312C20E0203210
:104C9000A0F48B3269F030F4803259F0833269F439
:104CA00020612CC08D3239F0803339F4216026C068
:104CB0002260246023C0286021C027FD27C030ED7A
:104CC000380F3A3078F426FF06C0FAE05F9E300DC8
:104CD0001124532E13C08AE0389E300D1124332E38
:104CE00020620CC08E3221F426FD6BC1206406C008
:104CF0008C3611F4206802C0883641F4F60193FD29
:104D0000859193FF81916F018111C1CF982F9F7D74
:104D10009554933028F40C5F1F4FFFE3F9830DC0C7
:104D2000833631F0833771F0833509F05BC022C0E0
:104D3000F801808189830E5F1F4F44244394512CD6
:104D4000540115C03801F2E06F0E711CF801A0800B
:104D5000B18026FF03C0652D70E002C06FEF7FEFCA
:104D6000C5012C870E94DA2B2C0183012C852F771B
:104D7000222E17C03801F2E06F0E711CF801A080DE
:104D8000B18026FF03C0652D70E002C06FEF7FEF9A
:104D9000C5012C870E94CF2B2C012C852068222E48
:104DA000830123FC1BC0832D90E048165906B0F404
:104DB000B70180E290E00E94F52B3A94F4CFF50120
:104DC00027FC859127FE81915F01B70190E00E9449
:104DD000F52B31103A94F1E04F1A51084114510467
:104DE00071F7E5C0843611F0893639F5F80127FFEF
:104DF00007C060817181828193810C5F1F4F08C061
:104E000060817181072E000C880B990B0E5F1F4F7C
:104E10002F76722E97FF09C09095809570956195B9
:104E20007F4F8F4F9F4F2068722E2AE030E0A40101
:104E30000E942D2CA82EA81844C0853729F42F7E57
:104E4000B22E2AE030E025C0F22FF97FBF2E8F3638
:104E5000C1F018F4883579F0B4C0803719F088377C
:104E600021F0AFC02F2F2061B22EB4FE0DC08B2DCC
:104E70008460B82E09C024FF0AC09F2F9660B92E07
:104E800006C028E030E005C020E130E002C020E1AB
:104E900032E0F801B7FE07C06081718182819381A1
:104EA0000C5F1F4F06C06081718180E090E00E5F53
:104EB0001F4FA4010E942D2CA82EA818FB2DFF77B0
:104EC0007F2E76FE0BC0372D3E7FA51450F474FE66
:104ED0000AC072FC08C0372D3E7E05C0BA2C372DA3
:104EE00003C0BA2C01C0B52C34FF0DC0FE01EA0D81
:104EF000F11D8081803311F4397E09C032FF06C074
:104F0000B394B39404C0832F867809F0B39433FD2F
:104F100013C030FF06C05A2CB31418F4530C5B189E
:104F2000B32CB31468F4B70180E290E03C870E9490
:104F3000F52BB3943C85F5CFB31410F43B1801C0A6
:104F4000312C34FF12C0B70180E390E03C870E940F
:104F5000F52B3C8532FF17C031FD03C088E790E098
:104F600002C088E590E0B7010CC0832F867859F025
:104F700031FF02C08BE201C080E237FD8DE2B70154
:104F800090E00E94F52BA51438F4B70180E390E07F
:104F90000E94F52B5A94F7CFAA94F401EA0DF11D63
:104FA0008081B70190E00E94F52BA110F5CF33204E
:104FB00009F451CEB70180E290E00E94F52B3A94BB
:104FC000F6CFF7018681978102C08FEF9FEF2C9675
:104FD000E2E10C940B2E4F925F926F927F929F9220
:104FE000AF92BF92CF92DF92EF92FF920F931F93F7
:104FF000CF93DF93CDB7DEB729970FB6F894DEBF16
:105000000FBECDBF6A01122FB02E2BE3201720F068
:10501000FF24F394F00E02C0BCE3FB2E0F2D27E01B
:10502000AE014F5F5F4F0E94D62AAC018981982F55
:105030009970913031F0E1FC06C0E0FE06C090E2CC
:1050400005C09DE203C09BE201C090E0EE2DE0713F
:1050500083FF3CC0911102C083E001C084E081174E
:1050600018F4212F281B01C020E0E1110BC0F6012C
:10507000822F30E2882319F031938150FBCFC20E8A
:10508000D11C20E0992329F0D6019C93F60131969A
:105090006F01C6010396E2FE0AC03EE4D6013C93CE
:1050A00041E411964C93119712963C9306C03EE64C
:1050B000F601308341E641833283FC01322F40E226
:1050C000332309F442C041933150FACF82FF44C0E8
:1050D000911102C083E001C084E0811718F4212FF0
:1050E000281B01C020E0E1110BC0F601822F30E245
:1050F000882319F031938150FBCFC20ED11C20E0E0
:10510000992329F0D6019C93F60131966F01C601CF
:105110000396E2FE0BC039E4D6013C933EE41196BF
:105120003C93119736E412963C9307C039E6F6019A
:1051300030833EE6318336E63283FC01322F40E293
:10514000332319F041933150FBCFFC01E20FF11DE5
:1051500010828EEF9FEFB7C0F1E0911101C0F0E037
:105160006F2F70E01416150624F49A012F5F3F4F3D
:1051700002C021E030E0260F371FBB2029F06B2D45
:1051800070E06F5F7F4F02C060E070E0260F371F56
:10519000612F70E0261737071CF4121B212F01C066
:1051A00020E03E2D387159F4D601322F60E23323CE
:1051B00019F06D933150FBCFC20ED11C20E0FF23BC
:1051C00031F0D6019C93B6016F5F7F4F6B01E11107
:1051D0000BC0F601922F30E3992319F031939150CF
:1051E000FBCFC20ED11C20E09F2D940F3A81782F67
:1051F0007071A72E84FF03C0313309F49150191642
:1052000024F4993018F098E001C091E0E42F852F44
:1052100057FF02C0E0E080E06E2F782FE0E0F0E082
:10522000AEE29A2E3A01691A71082A01461A570A03
:105230000B2D10E01195019511096F3F8FEF780745
:1052400029F4D6019C92C60101966C0146175707B6
:1052500084F0661677066CF47F01E40CF51CA1E07F
:10526000B0E0AC0FBD1FEA0EFB1ED7011196BC903B
:1052700002C090E3B92E615071093196C6010196C2
:105280007C016017710724F0D601BC926C01D5CF68
:105290006417750741F4363320F4353321F4A11037
:1052A00002C081E3B82EF601B082F701822F90E2AE
:1052B000882319F091938150FBCFF701E20FF11D84
:1052C000108280E090E029960FB6F894DEBF0FBE02
:1052D000CDBFDF91CF911F910F91FF90EF90DF90A5
:1052E000CF90BF90AF909F907F906F905F904F90C6
:1052F0000895A0E0B0E0EFE7F9E20C94F32DEC01A3
:105300007B016115710519F0DB018D939C938E0172
:105310000F5F1F4F7880872D90E00E94AE2B892B66
:1053200011F0E801F4CFBDE27B1205C00F5F1F4F03
:105330007980C1E008C0EBE27E1204C08E010E5FEE
:105340001F4F7980C0E06801F1E0CF1AD10843E037
:1053500050E06EEF75E0C6010E94B72B892BF1F487
:10536000680122E0C20ED11C45E050E069EF75E013
:10537000C6010E94B72B892B21F4680187E0C80E73
:10538000D11CE114F10419F0D701CD92DC92C111C6
:10539000FFC060E070E080E89FE703C143E050E0B9
:1053A00066EF75E0C6010E94B72B892B51F4E1141A
:1053B000F10409F4F2C00E5F1F4FF701118300835F
:1053C000ECC0680160E070E0CB0100E010E0F601A5
:1053D000D0EDD70DDA3058F52C2F2260622E2C2F0D
:1053E0002870C2FF05C0211128C00F5F1F4F25C0C4
:1053F000222311F001501109A5E0B0E09B01AC019E
:105400000E94E42D4B015C01880C991CAA1CBB1C5A
:10541000C501B4016D0F711D811D911D6839A9E988
:105420007A078A07A9E19A0740F0C66005C0DE3F07
:1054300051F4C3FD44C0C8606C2EBFEFCB1ADB0A29
:105440007080C62DC4CF2D2F2F7D2531C1F5408111
:105450004D3211F4C06106C04B3221F0319621E08B
:1054600030E006C03296D60111964C9122E030E031
:10547000A0EDA40FAA3018F0E21BF30B20C040E00F
:1054800050E04038BCE05B075CF49A01220F331F08
:10549000220F331F420F531F440F551F4A0F511D38
:1054A0003196DF0111972C91A0EDA20FAA3048F39D
:1054B000C4FF03C0519541955109040F151FC1FF49
:1054C00007C0E114F10421F03197D701ED93FC936B
:1054D0000E94902CC370C33019F06B017C0106C090
:1054E0006B017C01F7FAF094F7F8F09420E030E0DB
:1054F000A901C701B6010E948B2C882309F445C07D
:1055000017FF06C0119501951109C5E1D6E002C04B
:10551000CDE2D6E05E01B8E1AB1AB1084601BE2D7E
:10552000AF2D90E2E92EF12C0E151F0584F0FE013F
:105530002591359145915491B4018B2F9A2F0E945A
:10554000F12C4B01B82FA92F0E191F09EDCF24976D
:10555000F594E794CA15DB0539F76401EB2EFA2EB2
:105560008E2D880F8F2D881F8F3F49F020E030E06F
:10557000A901C701B6010E948B2C811106C082E2ED
:1055800090E09093CE038093CD03C701B60109C08C
:1055900060E070E080E89FEF04C060E070E080ECC5
:1055A0009FE7CDB7DEB7EEE00C940F2E283008F061
:1055B00027E03327DA01990F311D87FD91600096AE
:1055C0006105710539F432602E5F3D9330E32A9511
:1055D000E1F708959F3F30F080387105610509F0CB
:1055E0003C5F3C5F3D93913008F08068911DDF93F4
:1055F000CF931F930F93FF92EF92192F987F969559
:10560000E92F96959695E90FFF27E557F94F9927CA
:105610003327EE24FF24A701E7010590089407949F
:1056200028F4360FE71EF81E491F511D660F771F1D
:10563000881F991F0694A1F70590079428F4E70E98
:10564000F81E491F561FC11D770F881F991F661F1F
:105650000694A1F70590079428F4F80E491F561FE9
:10566000C71FD11D880F991F661F771F0694A1F7CA
:105670000590079420F4490F561FC71FD81F990F94
:10568000661F771F881F0694A9F7849110951770DD
:1056900041F0D695C79557954795F794E7941A9595
:1056A000C1F7E1E3F6E068941590159135916591A5
:1056B000959105907FE27395E118F10A430B560B23
:1056C000C90BD009C0F7E10CF11E431F561FC91FBB
:1056D000D01D7EF4703311F48A95E6CFE894015022
:1056E00030F0080F0AF40027021708F4202F239542
:1056F000022F7A3328F079E37D932A95E9F710C0D9
:105700007D932A9589F60694979567953795179511
:105710001794E118F10A430B560BC90BD00998F006
:1057200023957E9173957A3308F070E37C93201370
:10573000B8F77E9170617D9330F0839571E37D932E
:1057400070E32A95E1F71124EF90FF900F911F91DC
:10575000CF91DF91992787FD9095089591110C9431
:105760005E2D803219F089508550C8F70895FB01ED
:10577000DC014150504088F08D9181341CF08B3514
:105780000CF4805E659161341CF06B350CF4605E46
:10579000861B611171F3990B0895881BFCCFFC01E6
:1057A0000590615070400110D8F7809590958E0F4C
:1057B0009F1F0895FC016150704001900110D8F7BF
:1057C000809590958E0F9F1F0895DC01FC01672F37
:1057D00071917723E1F7329704C07C916D937083C8
:1057E0006291AE17BF07C8F308950F931F93CF932D
:1057F000DF93FB01238121FD03C08FEF9FEF28C0C2
:1058000022FF16C0468157812481358142175307F4
:1058100044F4A081B1819D012F5F3F4F31832083EC
:105820008C93268137812F5F3F4F3783268310C0AB
:10583000EB01092F182F0084F185E02D0995892BA4
:10584000E1F68E819F8101969F838E83812F902F19
:10585000DF91CF911F910F910895FA01AA27283067
:1058600051F1203181F1E8946F936E7F6E5F7F4F2D
:105870008F4F9F4FAF4FB1E03ED0B4E03CD0670FA9
:10588000781F891F9A1FA11D680F791F8A1F911DFC
:10589000A11D6A0F711D811D911DA11D20D009F44C
:1058A00068943F912AE0269F11243019305D31938E
:1058B000DEF6CF010895462F4770405D4193B3E077
:1058C0000FD0C9F7F6CF462F4F70405D4A3318F01E
:1058D000495D31FD4052419302D0A9F7EACFB4E0CF
:1058E000A6959795879577956795BA95C9F7009787
:1058F0006105710508959B01AC010A2E0694579528
:10590000479537952795BA95C9F7620F731F841F7E
:10591000951FA01D08950E94CD2C08F481E00895E4
:10592000E89409C097FB3EF4909580957095619539
:105930007F4F8F4F9F4F9923A9F0F92F96E9BB27EF
:105940009395F695879577956795B795F111F8CF6B
:10595000FAF4BB0F11F460FF1BC06F5F7F4F8F4FD6
:105960009F4F16C0882311F096E911C0772321F0CC
:105970009EE8872F762F05C0662371F096E8862F64
:1059800070E060E02AF09A95660F771F881FDAF7BB
:10599000880F9695879597F90895990F0008550FE8
:1059A000AA0BE0E8FEEF16161706E807F907C0F0A5
:1059B00012161306E407F50798F0621B730B840BAD
:1059C000950B39F40A2661F0232B242B252B21F487
:1059D00008950A2609F4A140A6958FEF811D811D27
:1059E00008950E94042D0C94782D0E946A2D38F0A1
:1059F0000E94712D20F0952311F00C94612D0C94D0
:105A0000672D11240C94AC2D0E94892D70F3959F65
:105A1000C1F3950F50E0551F629FF001729FBB27A5
:105A2000F00DB11D639FAA27F00DB11DAA1F649F41
:105A30006627B00DA11D661F829F2227B00DA11DF4
:105A4000621F739FB00DA11D621F839FA00D611D7A
:105A5000221F749F3327A00D611D231F849F600D9B
:105A6000211D822F762F6A2F11249F5750409AF0C4
:105A7000F1F088234AF0EE0FFF1FBB1F661F771F50
:105A8000881F91505040A9F79E3F510580F00C941B
:105A9000612D0C94AC2D5F3FE4F3983ED4F38695D2
:105AA00077956795B795F795E7959F5FC1F7FE2BBB
:105AB000880F911D9695879597F9089599278827BE
:105AC000089597F99F6780E870E060E008959FEF80
:105AD00080EC089500240A94161617061806090685
